S0420000433A5C55736572735C6D725F636F5F3030305C446F63756D656E74735C4769744875625C4543453437305F323034385C62696E5C50726F6A6563742E616273AD
S123C000CF11004A802B304A8000300001C011C04C110006F4FC17E84A8190300BC6805B02
S123C02037FE17E4097E17E42621FC17E6593BF317EAB745EE007E17E83AF317ECB745EE01
S123C040007E17E4FE17E6087E17E60B06E41100023902F802CD027F0239027F02CD02F8D5
S123C0600355035502CD0239027F02CD02F802CD027F023902CD035503550000027F021912
S123C08001AA01DF0219023902CD0239027F02CD02F802F802CD027F023902CD0355035563
S123C0A00000023902F802CD027F0239027F02CD02F80355035502CD0239027F02CD02F86E
S123C0C002CD027F023902CD035503550000027F021901AA01DF0219023902CD0239027F4A
S123C0E002CD02F802F802CD027F023902CD0355035500000472059A04FD05EF059A06A917
S123C100070E05EF0472059A04FD05EF059A047203550387000000FA007D007D007D003E62
S123C120003E007D007D00FA007D007D00FA007D007D0177007D00FA00FA00FA00FA01F409
S123C140007D00FA007D00FA007D007D0177007D00FA007D007D00FA007D007D00FA00FA22
S123C16000FA00FA00FA00FA00FA007D007D007D003E003E007D007D00FA007D007D00FAFE
S123C180007D007D0177007D00FA00FA00FA00FA01F4007D00FA007D00FA007D007D01776F
S123C1A0007D00FA007D007D00FA007D007D00FA00FA00FA00FA00FA00FA01F401F401F45B
S123C1C001F401F401F401F401F401F401F401F401F400FA00FA01F403E801F4077A05EF80
S123C1E004FD03F603BD03BD000003BD03BD03BD03BD03BD0432043204320432043203F6FA
S123C20003BD02F8027F059A043202190239025B027F04320472025B04FD059A05EF059A9A
S123C22003BD02F8027F059A02CD02F802CD027F04320472059A04FD05EF059A04FD03BD67
S123C24002F8027F059A043202190239025B027F0432047204B604FD059A05EF059A03BDFD
S123C26002F8027F059A059A02190239021901DF019201DF03BD035501AA019202190219B1
S123C28004320192017C016701DF01DF03BD01670152013F027F00000000027F000000006F
S123C2A0027F00000000027F00000000027F00000000027F016701670152013F027F000092
S123C2C00000027F00000000027F00000000027F00000000027F00000000027F0167016705
S123C2E0017C03BD02F8027F059A043202190239025B027F04320472025B04FD059A05EFDC
S123C300059A03BD02F8027F059A02CD02F802CD027F04320472059A04FD05EF059A04FDA7
S123C32003BD02F8027F059A043202190239025B027F0432047204B604FD059A05EF059A1C
S123C34003BD02F8027F059A059A02190239021901DF019201DF03BD035501AA019202192B
S123C360021904320192017C016701DF01DF03BD01670152013F027F00000000027F000073
S123C3800000027F00000000027F00000000027F00000000027F016701670152013F027FB1
S123C3A000000000027F00000000027F00000000027F00000000027F00000000027F01678C
S123C3C00167017C0000003E003E003E003E00FA00FA007D003E003E00FA00FA00FA002978
S123C3E0002900290029002900290177007D01F40177017700FA003E003E01F40177003E71
S123C400003E01F40053005300530177007D01F401F400530053005301F400530053005326
S123C4200271007D007D007D0177007D01F40177007D0177003E003E01F40177003E003E52
S123C44001F40053005300530177007D01F40177007D0053005300530177007D01F40177B0
S123C460007D01F40177007D01F401F400FA00FA0177007D01F401F400FA00FA00BB003EA7
S123C480007D003E003E007D003E003E007D003E003E007D003E003E007D003E003E005368
S123C4A00053005300BB003E007D003E003E007D003E003E007D003E003E007D003E003EF5
S123C4C0007D003E003E0053005300530177007D01F40177007D0177003E003E01F4017726
S123C4E0003E003E01F40053005300530177007D01F401F400530053005301F4005300535B
S123C50000530271007D007D007D0177007D01F40177007D0177003E003E01F40177003E5C
S123C520003E01F40053005300530177007D01F40177007D0053005300530177007D01F409
S123C5400177007D01F40177007D01F401F400FA00FA0177007D01F401F400FA00FA00BB8C
S123C560003E007D003E003E007D003E003E007D003E003E007D003E003E007D003E003E9C
S123C58000530053005300BB003E007D003E003E007D003E003E007D003E003E007D003EFF
S123C5A0003E007D003E003E00530053005301F40472043203BD02CD04FD0472043203BDAA
S123C5C0035502F80219035502F802CD027F02390472043203BD02CD027F0239021903BD3B
S123C5E003BD0239027F03BD0239027F03BD0239027F03BD0239027F0472043203BD02CD0C
S123C60004FD0472043203BD035502F80219035502F802CD027F02390472043203BD02CD24
S123C620027F0239021903BD03BD0239027F03BD0239027F03BD0239027F03BD0239027F6F
S123C640047203BD043204FD0432047203BD0239047203BD043204FD0432047203BD0239AE
S123C660027F02390219027F0219025B027F02CD000000BB003E007D027100BB003E02EEC4
S123C68000BB003E007D027100BB003E00FA00FA00FA00BB003E007D027100BB003E02EEF4
S123C6A000BB003E00FA00BB003E00FA00BB003E00FA00BB003E007D007D00BB003E007D34
S123C6C0027100BB003E02EE00BB003E007D027100BB003E00FA00FA00FA00BB003E007DB4
S123C6E0027100BB003E02EE00BB003E00FA00BB003E00FA00BB003E00FA00BB003E007D8B
S123C700007D00BB003E02EE00BB003E00290029021D00BB003E02EE00BB003E0029002911
S119C720021D00BB003E02EE00BB003E00290029021D01F4000098
S105FFE4C01542
S105FFF0C01D2E
S105FFFEC0003D
S2243080004A81A6304A816630CC80595B3B5A385A37C6034A80E830C6034A805430C6034AF6
S22430802080A430C6034A812C3020E6FEC00DFDC00B270E35ED31EC3169700434FB31032623
S224308040F2FEC00FEC31270BED31180A30700434F920F10A372040FC17EE8C00632C38596D
S224308060B745ECE21100B756CE000218157E17F0ECEA11C6CE000218157E17F2FC17F06CC1
S224308080FB9767FC17F26CFB97624A818630FE17EE087E17EE2005C7877C17EEE680C10221
S2243080A027B5320A372034FC17EE8C00F52C2C59B745ECE2128CB756CE000218157E17F0BE
S2243080C0ECEA14767C17F24A818630FC17F24A814730FE17EE087E17EE2005C7877C17EE3C
S2243080E0E680C10327C1320A372034FC17EE8C00612C2C59B745ECE21660B756CE0002189E
S224308100157E17F0ECEA17227C17F24A818630FC17F24A814730FE17EE087E17EE2005C7BA
S224308120877C17EEE680C10427C1320A372011CCFFFF7C17F04A818630C6FA874A814730F4
S224308140E6800411EA320A6CACC7876C82200ECE0000088E18682DFAEE82086E82EC82AC3A
S224308160802DEC1B840ACC04A05B405A4DC6805B46DE445E5ADE445E5E4C42204C43204C8E
S22430818048084D48FB0AC6805B464C4C2010EF0A3BDC5AE3805C5ADC5A5C5EDC5EE3B15C74
S21F3081A05AC6A05B4E0A4D39804C3A40C6025B34575B354F3708FC4C39800A79
S804000000FB
