S05A0000433A5C55736572735C6D725F636F5F3030305C446F63756D656E74735C4769744875625C4543453437305F323034385C62696E5C50726F6A6563742E61627348435331325F53657269616C5F4D6F6E69746F722E616273EA
S123C000CF11004A803F304A8000300001C011C058110006F0FC17E84A813E300BC6805B38
S123C02037FC17E42621FC17E6593BF317EAB745EE007E17E83AF317ECB745EE007E17E40C
S123C040FE17E6087E17E6FE17E4097E17E40B710001C6FF7B02670B06E41100023902F882
S123C06002CD027F0239027F02CD02F80355035502CD0239027F02CD02F802CD027F023958
S123C08002CD035503550000027F021901AA01DF0219023902CD0239027F02CD02F802F852
S123C0A002CD027F023902CD035503550000023902F802CD027F0239027F02CD02F8035510
S123C0C0035502CD0239027F02CD02F802CD027F023902CD035503550000027F021901AA5F
S123C0E001DF0219023902CD0239027F02CD02F802F802CD027F023902CD035503550000AE
S123C1000472059A04FD05EF059A06A9070E05EF0472059A04FD05EF059A047203550387B9
S123C12000000019000C000C000C00060006000C000C0019000C000C0019000C000C002513
S123C140000C00190019001900190032000C0019000C0019000C000C0025000C0019000C81
S123C160000C0019000C000C0019001900190019001900190019000C000C000C000600069F
S123C180000C000C0019000C000C0019000C000C0025000C00190019001900190032000C4E
S123C1A00019000C0019000C000C0025000C0019000C000C0019000C000C00190019001947
S123C1C000190019001900320032003200320032003200320032003200320032003200199F
S123C1E00019003200640032077A05EF04FD03F603BD03BD000003BD03BD03BD03BD03BDAB
S123C2000432043204320432043203F603BD02F8027F059A043202190239025B027F043299
S123C2200472025B04FD059A05EF059A03BD02F8027F059A02CD02F802CD027F0432047255
S123C240059A04FD05EF059A04FD03BD02F8027F059A043202190239025B027F04320472B6
S123C26004B604FD059A05EF059A03BD02F8027F059A059A02190239021901DF019201DF90
S123C28003BD035501AA01920219021904320192017C016701DF01DF03BD01670152013FE5
S123C2A0027F00000000027F00000000027F00000000027F00000000027F00000000027F74
S123C2C0016701670152013F027F00000000027F00000000027F00000000027F00000000F3
S123C2E0027F00000000027F01670167017C03BD02F8027F059A043202190239025B027FA7
S123C30004320472025B04FD059A05EF059A03BD02F8027F059A02CD02F802CD027F0432B4
S123C3200472059A04FD05EF059A04FD03BD02F8027F059A043202190239025B027F0432D5
S123C340047204B604FD059A05EF059A03BD02F8027F059A059A02190239021901DF019219
S123C36001DF03BD035501AA01920219021904320192017C016701DF01DF03BD0167015264
S123C380013F027F00000000027F00000000027F00000000027F00000000027F00000000D4
S123C3A0027F016701670152013F027F00000000027F00000000027F00000000027F000091
S123C3C00000027F00000000027F01670167017C0000000600060006000600190019000CB4
S123C3E0000600060019001900190004000400040004000400040025000C0032002500251D
S123C400001900060006003200250006000600320008000800080025000C003200320008A9
S123C420000800080032000800080008003E000C000C000C0025000C00320025000C002583
S123C44000060006003200250006000600320008000800080025000C00320025000C000883
S123C460000800080025000C00320025000C00320025000C00320032001900190025000CEA
S123C480003200320019001900120006000C00060006000C00060006000C00060006000C96
S123C4A000060006000C0006000600080008000800120006000C00060006000C00060006F4
S123C4C0000C00060006000C00060006000C000600060008000800080025000C0032002570
S123C4E0000C002500060006003200250006000600320008000800080025000C00320032B9
S123C5000008000800080032000800080008003E000C000C000C0025000C00320025000CBF
S123C520002500060006003200250006000600320008000800080025000C00320025000C85
S123C5400008000800080025000C00320025000C00320025000C003200320019001900250D
S123C560000C003200320019001900120006000C00060006000C00060006000C00060006B5
S123C580000C00060006000C0006000600080008000800120006000C00060006000C00060D
S123C5A00006000C00060006000C00060006000C0006000600080008000800320472043233
S123C5C003BD02CD04FD0472043203BD035502F80219035502F802CD027F02390472043265
S123C5E003BD02CD027F0239021903BD03BD0239027F03BD0239027F03BD0239027F03BDDD
S123C6000239027F0472043203BD02CD04FD0472043203BD035502F80219035502F802CD24
S123C620027F02390472043203BD02CD027F0239021903BD03BD0239027F03BD0239027F70
S123C64003BD0239027F03BD0239027F047203BD043204FD0432047203BD0239047203BD94
S123C660043204FD0432047203BD0239027F02390219027F0219025B027F02CD00000012A6
S123C6800006000C003E00120006004B00120006000C003E0012000600190019001900120C
S123C6A00006000C003E00120006004B00120006001900120006001900120006001900121E
S123C6C00006000C000C00120006000C003E00120006004B00120006000C003E00120006F9
S123C6E000190019001900120006000C003E00120006004B001200060019001200060019C4
S123C70000120006001900120006000C000C00120006004B001200060004000400360012E9
S123C7200006004B0012000600040004003600120006004B00120006000400040036003263
S105C7400000F3
S105FFCCC04F20
S105FFE4C01542
S105FFF0C01D2E
S105FFFEC0003D
S2243080004A815430C6FF7B026A7902685B035B014A811430CC80595B3B5A385A374A8169F2
S224308020304A816E30C6034A80B230C6034A806830C6034A808D30C6034A80D73020E6FEE4
S224308040C00DFDC00B270E35ED31EC3169700434FB310326F2FEC00FEC31270BED31180AFD
S22430806030700434F920F10AC10226201803110017EA180311C617ECECFB976E7C17E8EC61
S224308080FB97697C17E44A81343020FE0AC10326201803128C17EA1803147617ECECFB97F8
S2243080A0497C17E8ECFB97447C17E44A81343020FE0AC10426201803166017EA1803172246
S2243080C017ECECFB97247C17E8ECFB971F7C17E44A81343020FE0A370421182011CCFFFF71
S2243080E07C17EE4A813430C619874A80F530E6800411EA320A6CACC7876C82200ECE000055
S224308100088E18682DFAEE82086E82EC82AC802DEC1B840ACC04A05B405A4DC6805B46DEB2
S224308120445E5ADE445E5E4C42204C43204C48084D48FB0AC6805B464C4C2010EF0A3BDCDE
S2243081405AE3805C5ADC5A5C5EDC5EE3B15C5AC6A05B4E0A4D39804C3A40C6025B34575B15
S21B308160354F3708FC4C39800A1D02621F0AC61F7B02667902650AA9
S804000000FB
