S05A0000433A5C55736572735C6D725F636F5F3030305C446F63756D656E74735C4769744875625C4543453437305F323034385C62696E5C50726F6A6563742E61627348435331325F53657269616C5F4D6F6E69746F722E616273EA
S123C000CF1100790011CC09395B105A124A8044304A8000300001C01BC06E110006F0FC88
S123C02017E84A8105300BC6805B37FC17E42621FC17E6593BF317EBB745EE007E17E83AB9
S123C040F317EDB745EE007E17E4FE17E6087E17E6FE17E4097E17E40BF6026051F817EFD7
S123C0607B17EFF617EF5B01C6FF7B02670B06E41100023902F802CD027F0239027F02CD24
S123C08002F80355035502CD0239027F02CD02F802CD027F023902CD035503550000027F13
S123C0A0021901AA01DF0219023902CD0239027F02CD02F802F802CD027F023902CD035580
S123C0C003550000023902F802CD027F0239027F02CD02F80355035502CD0239027F02CDF0
S123C0E002F802CD027F023902CD035503550000027F021901AA01DF0219023902CD0239B1
S123C100027F02CD02F802F802CD027F023902CD0355035500000472059A04FD05EF059A24
S123C12006A9070E05EF0472059A04FD05EF059A04720355038700000019000C000C000C05
S123C14000060006000C000C0019000C000C0019000C000C0025000C0019001900190019C0
S123C1600032000C0019000C0019000C000C0025000C0019000C000C0019000C000C00197B
S123C180001900190019001900190019000C000C000C00060006000C000C0019000C000C8C
S123C1A00019000C000C0025000C00190019001900190032000C0019000C0019000C000C21
S123C1C00025000C0019000C000C0019000C000C00190019001900190019001900320032CE
S123C1E0003200320032003200320032003200320032003200190019003200640032077ACC
S123C20005EF04FD03F603BD03BD000003BD03BD03BD03BD03BD04320432043204320432DE
S123C22003F603BD02F8027F059A043202190239025B027F04320472025B04FD059A05EF20
S123C240059A03BD02F8027F059A02CD02F802CD027F04320472059A04FD05EF059A04FD68
S123C26003BD02F8027F059A043202190239025B027F0432047204B604FD059A05EF059ADD
S123C28003BD02F8027F059A059A02190239021901DF019201DF03BD035501AA01920219EC
S123C2A0021904320192017C016701DF01DF03BD01670152013F027F00000000027F000034
S123C2C00000027F00000000027F00000000027F00000000027F016701670152013F027F72
S123C2E000000000027F00000000027F00000000027F00000000027F00000000027F01674D
S123C3000167017C03BD02F8027F059A043202190239025B027F04320472025B04FD059A47
S123C32005EF059A03BD02F8027F059A02CD02F802CD027F04320472059A04FD05EF059A94
S123C34004FD03BD02F8027F059A043202190239025B027F0432047204B604FD059A05EF9A
S123C360059A03BD02F8027F059A059A02190239021901DF019201DF03BD035501AA019287
S123C3800219021904320192017C016701DF01DF03BD01670152013F027F00000000027F38
S123C3A000000000027F00000000027F00000000027F00000000027F016701670152013F12
S123C3C0027F00000000027F00000000027F00000000027F00000000027F00000000027F53
S123C3E001670167017C0000000600060006000600190019000C000600060019001900193F
S123C4000004000400040004000400040025000C00320025002500190006000600320025D7
S123C4200006000600320008000800080025000C00320032000800080008003200080008B3
S123C4400008003E000C000C000C0025000C00320025000C0025000600060032002500064C
S123C460000600320008000800080025000C00320025000C0008000800080025000C003259
S123C4800025000C00320025000C00320032001900190025000C0032003200190019001295
S123C4A00006000C00060006000C00060006000C00060006000C00060006000C00060006FA
S123C4C000080008000800120006000C00060006000C00060006000C00060006000C0006CE
S123C4E00006000C000600060008000800080025000C00320025000C00250006000600320B
S123C50000250006000600320008000800080025000C0032003200080008000800320008B5
S123C52000080008003E000C000C000C0025000C00320025000C0025000600060032002569
S123C5400006000600320008000800080025000C00320025000C0008000800080025000CA4
S123C56000320025000C00320025000C00320032001900190025000C003200320019001994
S123C58000120006000C00060006000C00060006000C00060006000C00060006000C00060D
S123C5A0000600080008000800120006000C00060006000C00060006000C00060006000CED
S123C5C000060006000C0006000600080008000800320472043203BD02CD04FD0472043201
S123C5E003BD035502F80219035502F802CD027F02390472043203BD02CD027F023902191B
S123C60003BD03BD0239027F03BD0239027F03BD0239027F03BD0239027F0472043203BDFA
S123C62002CD04FD0472043203BD035502F80219035502F802CD027F02390472043203BD04
S123C64002CD027F0239021903BD03BD0239027F03BD0239027F03BD0239027F03BD023901
S123C660027F047203BD043204FD0432047203BD0239047203BD043204FD0432047203BD48
S123C6800239027F02390219027F0219025B027F02CD000000120006000C003E00120006C1
S123C6A0004B00120006000C003E0012000600190019001900120006000C003E00120006EC
S123C6C0004B00120006001900120006001900120006001900120006000C000C0012000630
S123C6E0000C003E00120006004B00120006000C003E0012000600190019001900120006AC
S123C700000C003E00120006004B00120006001900120006001900120006001900120006BD
S123C720000C000C00120006004B0012000600040004003600120006004B001200060004A5
S11BC7400004003600120006004B0012000600040004003600320000B8
S105FFCCC05916
S105FFE4C01F38
S105FFF0C02724
S105FFFEC0003D
S2243080004A811B30C6FF7B026A7902685B037900014A80DB30CC80595B3B5A385A374A81B0
S22430802030304A8135304A804330C6017B17EA4A80B630F617EA4A806D30F617EA4A80919B
S2243080403020E70AFEC017FDC015270E35ED31EC3169700434FB310326F2FEC019EC3127EB
S2243080600BED31180A30700434F920F10A0421201803110017EB180311C617EDECFB976B42
S2243080807C17E8ECFB97667C17E44A80FB3020FE0AC10226201803128C17EB180314761738
S2243080A0EDECFB97467C17E8ECFB97417C17E44A80FB3020FE0AC10326201803166017EB6F
S2243080C01803172217EDECFB97217C17E8ECFB971C7C17E44A80FB3020FE0ACC04A05B40C0
S2243080E05A4DC6805B46DE445E5ADE445E5E4C42204C43204C48084D48FB0AC6805B464C3F
S2243081004C2010EF0A3BDC5AE3805C5ADC5A5C5EDC5EE3B15C5AC6A05B4E0A4D39804C3A12
S22230812040C6025B34575B354F3708FC4C39800A1D02621F0AC61F7B02667902650A99
S804000000FB
