S05F0000423A5C42656E6A616D696E204E6F6C64277320446174615C446F63756D656E74735C4769744875625C4543453437305F323034385C62696E5C50726F6A6563742E61627348435331325F53657269616C5F4D6F6E69746F722E6162734E
S123C000FEC03DFDC03B270E35ED31EC3169700434FB310326F2FEC03FEC31270BED3118AA
S123C0200A30700434F920F13DCF1100790011CC09395B105A1207C80680000001C041C06D
S123C0407E11000568FC165C1681230BC6805B37FC16582621FC165A593BF3165EB745EED3
S123C060007E165C3AF31660B745EE007E1658FE165A087E165AFE1658097E16580B055826
S123C0801100077A05EF04FD03F603BD03BD000003BD03BD03BD03BD03BD0432043204323A
S123C0A00432043203F603BD02F8027F059A043202190239025B027F04320472025B04FDC9
S123C0C0059A05EF059A03BD02F8027F059A02CD02F802CD027F04320472059A04FD05EFF7
S123C0E0059A04FD03BD02F8027F059A043202190239025B027F0432047204B604FD059A52
S123C10005EF059A03BD02F8027F059A059A02190239021901DF019201DF03BD035501AA88
S123C12001920219021904320192017C016701DF01DF03BD01670152013F027F0000000088
S123C140027F00000000027F00000000027F00000000027F00000000027F01670167015233
S123C160013F027F00000000027F00000000027F00000000027F00000000027F00000000F6
S123C180027F01670167017C03BD02F8027F059A043202190239025B027F04320472025B80
S123C1A004FD059A05EF059A03BD02F8027F059A02CD02F802CD027F04320472059A04FD09
S123C1C005EF059A04FD03BD02F8027F059A043202190239025B027F0432047204B604FD1C
S123C1E0059A05EF059A03BD02F8027F059A059A02190239021901DF019201DF03BD0355B4
S123C20001AA01920219021904320192017C016701DF01DF03BD01670152013F027F0000FC
S123C2200000027F00000000027F00000000027F00000000027F00000000027F01670167A5
S123C2400152013F027F00000000027F00000000027F00000000027F00000000027F0000C2
S123C2600000027F01670167017C0000003E003E003E003E00FA00FA007D003E003E00FA0D
S123C28000FA00FA0029002900290029002900290177007D01F40177017700FA003E003E60
S123C2A001F40177003E003E01F40053005300530177007D01F401F400530053005301F4D6
S123C2C00053005300530271007D007D007D0177007D01F40177007D0177003E003E01F4AF
S123C2E00177003E003E01F40053005300530177007D01F40177007D005300530053017708
S123C300007D01F40177007D01F40177007D01F401F400FA00FA0177007D01F401F400FA11
S123C32000FA00BB003E007D003E003E007D003E003E007D003E003E007D003E003E007DA5
S123C340003E003E00530053005300BB003E007D003E003E007D003E003E007D003E003E80
S123C360007D003E003E007D003E003E0053005300530177007D01F40177007D0177003E39
S123C380003E01F40177003E003E01F40053005300530177007D01F401F4005300530053AC
S123C3A001F40053005300530271007D007D007D0177007D01F40177007D0177003E003ECE
S123C3C001F40177003E003E01F40053005300530177007D01F40177007D005300530053AA
S123C3E00177007D01F40177007D01F40177007D01F401F400FA00FA0177007D01F401F4B3
S123C40000FA00FA00BB003E007D003E003E007D003E003E007D003E003E007D003E003E47
S123C420007D003E003E00530053005300BB003E007D003E003E007D003E003E007D003E60
S123C440003E007D003E003E007D003E003E00530053005301F40472043203BD02CD04FD7E
S123C4600472043203BD035502F80219035502F802CD027F02390472043203BD02CD027F46
S123C4800239021903BD03BD0239027F03BD0239027F03BD0239027F03BD0239027F04721C
S123C4A0043203BD02CD04FD0472043203BD035502F80219035502F802CD027F0239047286
S123C4C0043203BD02CD027F0239021903BD03BD0239027F03BD0239027F03BD0239027F88
S123C4E003BD0239027F047203BD043204FD0432047203BD0239047203BD043204FD043205
S123C500047203BD0239027F02390219027F0219025B027F02CD000000BB003E007D02719D
S123C52000BB003E02EE00BB003E007D027100BB003E00FA00FA00FA00BB003E007D027155
S123C54000BB003E02EE00BB003E00FA00BB003E00FA00BB003E00FA00BB003E007D007D22
S123C56000BB003E007D027100BB003E02EE00BB003E007D027100BB003E00FA00FA00FA15
S123C58000BB003E007D027100BB003E02EE00BB003E00FA00BB003E00FA00BB003E00FAEC
S123C5A000BB003E007D007D00BB003E02EE00BB003E00290029021D00BB003E02EE00BB8D
S11FC5C0003E00290029021D00BB003E02EE00BB003E00290029021D01F4000064
S105FFE4C04512
S105FFF0C04CFF
S105FFFEC02914
S2243080001681391680F9CC80595B3B5A385A37C60216807FC602168025C60216803DC602AB
S2243080201680C120EAC7877C1662FE16646EFB962DFE16666EFB962816811920FE372032CC
S224308040FC16628C00F52C2A59B745ECE21100B756CE000218157E1664ECEA12EA7C1666A0
S224308060168119FC16661680DAFE1662087E16622005C7877C1662E680C10327C3323D379E
S2243080802032FC16628C00612C2A59B745ECE214D4B756CE000218157E1664ECEA15967C98
S2243080A01666168119FC16661680DAFE1662087E16622005C7877C1662E680C10427C33255
S2243080C03D37200FCCFFFF7C1664168119C6FA871680DAE6800411EC323D6CACC7876C8277
S2243080E0200ECE0000088E18682DFAEE82086E82EC82AC802DEC1B843DCC04A05B405A4D69
S224308100C6805B46DE445E5ADE445E5E4C42204C43204C48084D48FB3DC6805B464C4C2026
S22430812010EF3D3BDC5AE3805C5ADC5A5C5EDC5EE3B15C5AC6A05B4E3D4D39804C3A40C6F2
S212308140025B34575B354F3708FC4C39803DB8
S804000000FB
